:020000040000FA
:020000000000FE
:020001000006F7
:02000200000DEF
:020003000013E8
:020004000019E1
:02000500001FDA
:020006000026D2
:02000700002CCB
:020008000032C4
:020009000038BD
:02000A00003FB5
:02000B000045AE
:02000C00004BA7
:02000D0000529F
:02000E00005898
:02000F00005E91
:0200100000648A
:02001100006B82
:0200120000717B
:02001300007774
:02001400007D6D
:02001500008465
:02001600008A5E
:02001700009057
:0200180000974F
:02001900009D48
:02001A0000A341
:02001B0000A93A
:02001C0000B032
:02001D0000B62B
:02001E0000BC24
:02001F0000C21D
:0200200000C915
:0200210000CF0E
:0200220000D507
:0200230000DB00
:0200240000E2F8
:0200250000E8F1
:0200260000EEEA
:0200270000F4E3
:0200280000FADC
:020029000101D3
:02002A000107CC
:02002B00010DC5
:02002C000113BE
:02002D00011AB6
:02002E000120AF
:02002F000126A8
:02003000012CA1
:0200310001329A
:02003200013992
:02003300013F8B
:02003400014584
:02003500014B7D
:02003600015176
:0200370001586E
:02003800015E67
:02003900016460
:02003A00016A59
:02003B00017052
:02003C0001764B
:02003D00017D43
:02003E0001833C
:02003F00018935
:02004000018F2E
:02004100019527
:02004200019B20
:0200430001A218
:0200440001A811
:0200450001AE0A
:0200460001B403
:0200470001BAFC
:0200480001C0F5
:0200490001C6EE
:02004A0001CDE6
:02004B0001D3DF
:02004C0001D9D8
:02004D0001DFD1
:02004E0001E5CA
:02004F0001EBC3
:0200500001F1BC
:0200510001F7B5
:0200520001FDAE
:020053000203A6
:0200540002099F
:02005500021097
:02005600021690
:02005700021C89
:02005800022282
:0200590002287B
:02005A00022E74
:02005B0002346D
:02005C00023A66
:02005D0002405F
:02005E00024658
:02005F00024C51
:0200600002524A
:02006100025843
:02006200025E3C
:02006300026435
:02006400026A2E
:02006500027027
:02006600027620
:02006700027C19
:02006800028212
:0200690002880B
:02006A00028E04
:02006B000294FD
:02006C00029AF6
:02006D0002A0EF
:02006E0002A5E9
:02006F0002ABE2
:0200700002B1DB
:0200710002B7D4
:0200720002BDCD
:0200730002C3C6
:0200740002C9BF
:0200750002CFB8
:0200760002D5B1
:0200770002DAAB
:0200780002E0A4
:0200790002E69D
:02007A0002EC96
:02007B0002F28F
:02007C0002F888
:02007D0002FE81
:02007E0003037A
:02007F00030973
:02008000030F6C
:02008100031565
:02008200031B5E
:02008300032058
:02008400032651
:02008500032C4A
:02008600033243
:0200870003373D
:02008800033D36
:0200890003432F
:02008A00034928
:02008B00034E22
:02008C0003541B
:02008D00035A14
:02008E00035F0E
:02008F00036507
:02009000036B00
:020091000370FA
:020092000376F3
:02009300037CEC
:020094000381E6
:020095000387DF
:02009600038DD8
:020097000392D2
:020098000398CB
:02009900039EC4
:02009A0003A3BE
:02009B0003A9B7
:02009C0003AEB1
:02009D0003B4AA
:02009E0003B9A4
:02009F0003BF9D
:0200A00003C497
:0200A10003CA90
:0200A20003D089
:0200A30003D583
:0200A40003DB7C
:0200A50003E076
:0200A60003E66F
:0200A70003EB69
:0200A80003F063
:0200A90003F65C
:0200AA0003FB56
:0200AB0004014E
:0200AC00040648
:0200AD00040C41
:0200AE0004113B
:0200AF00041635
:0200B000041C2E
:0200B100042128
:0200B200042721
:0200B300042C1B
:0200B400043115
:0200B50004370E
:0200B600043C08
:0200B700044102
:0200B8000447FB
:0200B900044CF5
:0200BA000451EF
:0200BB000456E9
:0200BC00045CE2
:0200BD000461DC
:0200BE000466D6
:0200BF00046BD0
:0200C0000471C9
:0200C1000476C3
:0200C200047BBD
:0200C3000480B7
:0200C4000485B1
:0200C500048BAA
:0200C6000490A4
:0200C70004959E
:0200C800049A98
:0200C900049F92
:0200CA0004A48C
:0200CB0004A986
:0200CC0004AF7F
:0200CD0004B479
:0200CE0004B973
:0200CF0004BE6D
:0200D00004C367
:0200D10004C861
:0200D20004CD5B
:0200D30004D255
:0200D40004D74F
:0200D50004DC49
:0200D60004E143
:0200D70004E63D
:0200D80004EB37
:0200D90004F031
:0200DA0004F52B
:0200DB0004FA25
:0200DC0004FE20
:0200DD00050319
:0200DE00050813
:0200DF00050D0D
:0200E000051207
:0200E100051701
:0200E200051CFB
:0200E3000520F6
:0200E4000525F0
:0200E500052AEA
:0200E600052FE4
:0200E7000534DE
:0200E8000538D9
:0200E900053DD3
:0200EA000542CD
:0200EB000547C7
:0200EC00054BC2
:0200ED000550BC
:0200EE000555B6
:0200EF000559B1
:0200F000055EAB
:0200F1000563A5
:0200F2000567A0
:0200F300056C9A
:0200F400057194
:0200F50005758F
:0200F600057A89
:0200F700057E84
:0200F80005837E
:0200F900058779
:0200FA00058C73
:0200FB0005906E
:0200FC00059568
:0200FD00059963
:0200FE00059E5D
:0200FF0005A258
:00000001ff
