:020000040000FA
:0200000007FEF9
:0200010007FEF8
:0200020007FEF7
:0200030007FEF6
:0200040007FEF5
:0200050007FEF4
:0200060007FEF3
:0200070007FEF2
:0200080007FDF2
:0200090007FDF1
:02000A0007FDF0
:02000B0007FDEF
:02000C0007FDEE
:02000D0007FCEE
:02000E0007FCED
:02000F0007FCEC
:0200100007FCEB
:0200110007FBEB
:0200120007FBEA
:0200130007FBE9
:0200140007FAE9
:0200150007FAE8
:0200160007F9E8
:0200170007F9E7
:0200180007F8E7
:0200190007F8E6
:02001A0007F7E6
:02001B0007F7E5
:02001C0007F6E5
:02001D0007F6E4
:02001E0007F5E4
:02001F0007F5E3
:0200200007F4E3
:0200210007F4E2
:0200220007F3E2
:0200230007F2E2
:0200240007F2E1
:0200250007F1E1
:0200260007F0E1
:0200270007EFE1
:0200280007EFE0
:0200290007EEE0
:02002A0007EDE0
:02002B0007ECE0
:02002C0007EBE0
:02002D0007EBDF
:02002E0007EADF
:02002F0007E9DF
:0200300007E8DF
:0200310007E7DF
:0200320007E6DF
:0200330007E5DF
:0200340007E4DF
:0200350007E3DF
:0200360007E2DF
:0200370007E1DF
:0200380007E0DF
:0200390007DFDF
:02003A0007DEDF
:02003B0007DDDF
:02003C0007DBE0
:02003D0007DAE0
:02003E0007D9E0
:02003F0007D8E0
:0200400007D7E0
:0200410007D5E1
:0200420007D4E1
:0200430007D3E1
:0200440007D2E1
:0200450007D0E2
:0200460007CFE2
:0200470007CEE2
:0200480007CCE3
:0200490007CBE3
:02004A0007C9E4
:02004B0007C8E4
:02004C0007C7E4
:02004D0007C5E5
:02004E0007C4E5
:02004F0007C2E6
:0200500007C1E6
:0200510007BFE7
:0200520007BEE7
:0200530007BCE8
:0200540007BAE9
:0200550007B9E9
:0200560007B7EA
:0200570007B6EA
:0200580007B4EB
:0200590007B2EC
:02005A0007B1EC
:02005B0007AFED
:02005C0007ADEE
:02005D0007ABEF
:02005E0007AAEF
:02005F0007A8F0
:0200600007A6F1
:0200610007A4F2
:0200620007A2F3
:0200630007A0F4
:02006400079EF5
:02006500079DF5
:02006600079BF6
:020067000799F7
:020068000797F8
:020069000795F9
:02006A000793FA
:02006B000791FB
:02006C00078FFC
:02006D00078DFD
:02006E00078BFE
:02006F000789FF
:02007000078601
:02007100078402
:02007200078203
:02007300078004
:02007400077E05
:02007500077C06
:02007600077908
:02007700077709
:0200780007750A
:0200790007730B
:02007A0007700D
:02007B00076E0E
:02007C00076C0F
:02007D00076911
:02007E00076712
:02007F00076513
:02008000076215
:02008100076016
:02008200075D18
:02008300075B19
:0200840007591A
:0200850007561C
:0200860007541D
:0200870007511F
:02008800074E21
:02008900074C22
:02008A00074924
:02008B00074725
:02008C00074427
:02008D00074228
:02008E00073F2A
:02008F00073C2C
:02009000073A2D
:0200910007372F
:02009200073431
:02009300073133
:02009400072F34
:02009500072C36
:02009600072938
:0200970007263A
:0200980007243B
:0200990007213D
:02009A00071E3F
:02009B00071B41
:02009C00071843
:02009D00071545
:02009E00071247
:02009F00070F49
:0200A000070C4B
:0200A10007094D
:0200A20007064F
:0200A300070351
:0200A400070053
:0200A50006FD56
:0200A60006FA58
:0200A70006F75A
:0200A80006F45C
:0200A90006F15E
:0200AA0006EE60
:0200AB0006EB62
:0200AC0006E864
:0200AD0006E566
:0200AE0006E169
:0200AF0006DE6B
:0200B00006DB6D
:0200B10006D86F
:0200B20006D472
:0200B30006D174
:0200B40006CE76
:0200B50006CB78
:0200B60006C77B
:0200B70006C47D
:0200B80006C17F
:0200B90006BD82
:0200BA0006BA84
:0200BB0006B687
:0200BC0006B389
:0200BD0006B08B
:0200BE0006AC8E
:0200BF0006A990
:0200C00006A593
:0200C10006A295
:0200C200069E98
:0200C300069B9A
:0200C40006979D
:0200C50006949F
:0200C6000690A2
:0200C700068CA5
:0200C8000689A7
:0200C9000685AA
:0200CA000682AC
:0200CB00067EAF
:0200CC00067AB2
:0200CD000677B4
:0200CE000673B7
:0200CF00066FBA
:0200D000066BBD
:0200D1000668BF
:0200D2000664C2
:0200D3000660C5
:0200D400065CC8
:0200D5000658CB
:0200D6000655CD
:0200D7000651D0
:0200D800064DD3
:0200D9000649D6
:0200DA000645D9
:0200DB000641DC
:0200DC00063DDF
:0200DD000639E2
:0200DE000636E4
:0200DF000632E7
:0200E000062EEA
:0200E100062AED
:0200E2000626F0
:0200E3000622F3
:0200E400061EF6
:0200E5000619FA
:0200E6000615FD
:0200E700061100
:0200E800060D03
:0200E900060906
:0200EA00060509
:0200EB0006010C
:0200EC0005FD10
:0200ED0005F913
:0200EE0005F417
:0200EF0005F01A
:0200F00005EC1D
:0200F10005E820
:0200F20005E423
:0200F30005DF27
:0200F40005DB2A
:0200F50005D72D
:0200F60005D231
:0200F70005CE34
:0200F80005CA37
:0200F90005C53B
:0200FA0005C13E
:0200FB0005BD41
:0200FC0005B845
:0200FD0005B448
:0200FE0005B04B
:0200FF0005AB4F
:00000001ff
